{
  "_format": "hh-sol-artifact-1",
  "contractName": "SHIWA",
  "sourceName": "contracts/SHIWA.sol",
  "abi": [
    {
      "inputs": [
        {
          "internalType": "string",
          "name": "uri",
          "type": "string"
        },
        {
          "internalType": "bytes32",
          "name": "merkleroot",
          "type": "bytes32"
        },
        {
          "internalType": "address",
          "name": "_proxyRegistryAddress",
          "type": "address"
        },
        {
          "internalType": "address",
          "name": "_tokenAddress",
          "type": "address"
        }
      ],
      "stateMutability": "nonpayable",
      "type": "constructor"
    },
    {
      "anonymous": false,
      "inputs": [
        {
          "indexed": true,
          "internalType": "address",
          "name": "owner",
          "type": "address"
        },
        {
          "indexed": true,
          "internalType": "address",
          "name": "approved",
          "type": "address"
        },
        {
          "indexed": true,
          "internalType": "uint256",
          "name": "tokenId",
          "type": "uint256"
        }
      ],
      "name": "Approval",
      "type": "event"
    },
    {
      "anonymous": false,
      "inputs": [
        {
          "indexed": true,
          "internalType": "address",
          "name": "owner",
          "type": "address"
        },
        {
          "indexed": true,
          "internalType": "address",
          "name": "operator",
          "type": "address"
        },
        {
          "indexed": false,
          "internalType": "bool",
          "name": "approved",
          "type": "bool"
        }
      ],
      "name": "ApprovalForAll",
      "type": "event"
    },
    {
      "anonymous": false,
      "inputs": [
        {
          "indexed": true,
          "internalType": "address",
          "name": "previousOwner",
          "type": "address"
        },
        {
          "indexed": true,
          "internalType": "address",
          "name": "newOwner",
          "type": "address"
        }
      ],
      "name": "OwnershipTransferred",
      "type": "event"
    },
    {
      "anonymous": false,
      "inputs": [
        {
          "indexed": true,
          "internalType": "address",
          "name": "from",
          "type": "address"
        },
        {
          "indexed": true,
          "internalType": "address",
          "name": "to",
          "type": "address"
        },
        {
          "indexed": true,
          "internalType": "uint256",
          "name": "tokenId",
          "type": "uint256"
        }
      ],
      "name": "Transfer",
      "type": "event"
    },
    {
      "inputs": [
        {
          "internalType": "address",
          "name": "",
          "type": "address"
        }
      ],
      "name": "_presaleClaimed",
      "outputs": [
        {
          "internalType": "uint256",
          "name": "",
          "type": "uint256"
        }
      ],
      "stateMutability": "view",
      "type": "function"
    },
    {
      "inputs": [
        {
          "internalType": "address",
          "name": "to",
          "type": "address"
        },
        {
          "internalType": "uint256",
          "name": "tokenId",
          "type": "uint256"
        }
      ],
      "name": "approve",
      "outputs": [],
      "stateMutability": "nonpayable",
      "type": "function"
    },
    {
      "inputs": [
        {
          "internalType": "address",
          "name": "owner",
          "type": "address"
        }
      ],
      "name": "balanceOf",
      "outputs": [
        {
          "internalType": "uint256",
          "name": "",
          "type": "uint256"
        }
      ],
      "stateMutability": "view",
      "type": "function"
    },
    {
      "inputs": [],
      "name": "baseExtension",
      "outputs": [
        {
          "internalType": "string",
          "name": "",
          "type": "string"
        }
      ],
      "stateMutability": "view",
      "type": "function"
    },
    {
      "inputs": [],
      "name": "baseURI",
      "outputs": [
        {
          "internalType": "string",
          "name": "",
          "type": "string"
        }
      ],
      "stateMutability": "view",
      "type": "function"
    },
    {
      "inputs": [
        {
          "internalType": "uint256",
          "name": "tokenId",
          "type": "uint256"
        }
      ],
      "name": "getApproved",
      "outputs": [
        {
          "internalType": "address",
          "name": "",
          "type": "address"
        }
      ],
      "stateMutability": "view",
      "type": "function"
    },
    {
      "inputs": [
        {
          "internalType": "address",
          "name": "owner",
          "type": "address"
        },
        {
          "internalType": "address",
          "name": "operator",
          "type": "address"
        }
      ],
      "name": "isApprovedForAll",
      "outputs": [
        {
          "internalType": "bool",
          "name": "",
          "type": "bool"
        }
      ],
      "stateMutability": "view",
      "type": "function"
    },
    {
      "inputs": [],
      "name": "maxSupply",
      "outputs": [
        {
          "internalType": "uint256",
          "name": "",
          "type": "uint256"
        }
      ],
      "stateMutability": "view",
      "type": "function"
    },
    {
      "inputs": [],
      "name": "name",
      "outputs": [
        {
          "internalType": "string",
          "name": "",
          "type": "string"
        }
      ],
      "stateMutability": "view",
      "type": "function"
    },
    {
      "inputs": [],
      "name": "notRevealedUri",
      "outputs": [
        {
          "internalType": "string",
          "name": "",
          "type": "string"
        }
      ],
      "stateMutability": "view",
      "type": "function"
    },
    {
      "inputs": [],
      "name": "owner",
      "outputs": [
        {
          "internalType": "address",
          "name": "",
          "type": "address"
        }
      ],
      "stateMutability": "view",
      "type": "function"
    },
    {
      "inputs": [
        {
          "internalType": "uint256",
          "name": "tokenId",
          "type": "uint256"
        }
      ],
      "name": "ownerOf",
      "outputs": [
        {
          "internalType": "address",
          "name": "",
          "type": "address"
        }
      ],
      "stateMutability": "view",
      "type": "function"
    },
    {
      "inputs": [],
      "name": "paused",
      "outputs": [
        {
          "internalType": "bool",
          "name": "",
          "type": "bool"
        }
      ],
      "stateMutability": "view",
      "type": "function"
    },
    {
      "inputs": [],
      "name": "presaleM",
      "outputs": [
        {
          "internalType": "bool",
          "name": "",
          "type": "bool"
        }
      ],
      "stateMutability": "view",
      "type": "function"
    },
    {
      "inputs": [
        {
          "internalType": "address",
          "name": "account",
          "type": "address"
        },
        {
          "internalType": "uint256",
          "name": "_amount",
          "type": "uint256"
        },
        {
          "internalType": "bytes32[]",
          "name": "_proof",
          "type": "bytes32[]"
        }
      ],
      "name": "presaleMint",
      "outputs": [],
      "stateMutability": "nonpayable",
      "type": "function"
    },
    {
      "inputs": [],
      "name": "publicM",
      "outputs": [
        {
          "internalType": "bool",
          "name": "",
          "type": "bool"
        }
      ],
      "stateMutability": "view",
      "type": "function"
    },
    {
      "inputs": [
        {
          "internalType": "uint256",
          "name": "_amount",
          "type": "uint256"
        }
      ],
      "name": "publicSaleMint",
      "outputs": [],
      "stateMutability": "nonpayable",
      "type": "function"
    },
    {
      "inputs": [],
      "name": "renounceOwnership",
      "outputs": [],
      "stateMutability": "nonpayable",
      "type": "function"
    },
    {
      "inputs": [],
      "name": "reveal",
      "outputs": [],
      "stateMutability": "nonpayable",
      "type": "function"
    },
    {
      "inputs": [],
      "name": "revealed",
      "outputs": [
        {
          "internalType": "bool",
          "name": "",
          "type": "bool"
        }
      ],
      "stateMutability": "view",
      "type": "function"
    },
    {
      "inputs": [],
      "name": "root",
      "outputs": [
        {
          "internalType": "bytes32",
          "name": "",
          "type": "bytes32"
        }
      ],
      "stateMutability": "view",
      "type": "function"
    },
    {
      "inputs": [
        {
          "internalType": "address",
          "name": "from",
          "type": "address"
        },
        {
          "internalType": "address",
          "name": "to",
          "type": "address"
        },
        {
          "internalType": "uint256",
          "name": "tokenId",
          "type": "uint256"
        }
      ],
      "name": "safeTransferFrom",
      "outputs": [],
      "stateMutability": "nonpayable",
      "type": "function"
    },
    {
      "inputs": [
        {
          "internalType": "address",
          "name": "from",
          "type": "address"
        },
        {
          "internalType": "address",
          "name": "to",
          "type": "address"
        },
        {
          "internalType": "uint256",
          "name": "tokenId",
          "type": "uint256"
        },
        {
          "internalType": "bytes",
          "name": "_data",
          "type": "bytes"
        }
      ],
      "name": "safeTransferFrom",
      "outputs": [],
      "stateMutability": "nonpayable",
      "type": "function"
    },
    {
      "inputs": [
        {
          "internalType": "address",
          "name": "operator",
          "type": "address"
        },
        {
          "internalType": "bool",
          "name": "approved",
          "type": "bool"
        }
      ],
      "name": "setApprovalForAll",
      "outputs": [],
      "stateMutability": "nonpayable",
      "type": "function"
    },
    {
      "inputs": [
        {
          "internalType": "string",
          "name": "_newBaseExtension",
          "type": "string"
        }
      ],
      "name": "setBaseExtension",
      "outputs": [],
      "stateMutability": "nonpayable",
      "type": "function"
    },
    {
      "inputs": [
        {
          "internalType": "string",
          "name": "_tokenBaseURI",
          "type": "string"
        }
      ],
      "name": "setBaseURI",
      "outputs": [],
      "stateMutability": "nonpayable",
      "type": "function"
    },
    {
      "inputs": [
        {
          "internalType": "bytes32",
          "name": "merkleroot",
          "type": "bytes32"
        }
      ],
      "name": "setMerkleRoot",
      "outputs": [],
      "stateMutability": "nonpayable",
      "type": "function"
    },
    {
      "inputs": [
        {
          "internalType": "uint256",
          "name": "_price",
          "type": "uint256"
        }
      ],
      "name": "setMintPrice",
      "outputs": [],
      "stateMutability": "nonpayable",
      "type": "function"
    },
    {
      "inputs": [
        {
          "internalType": "string",
          "name": "_notRevealedURI",
          "type": "string"
        }
      ],
      "name": "setNotRevealedURI",
      "outputs": [],
      "stateMutability": "nonpayable",
      "type": "function"
    },
    {
      "inputs": [
        {
          "internalType": "bytes4",
          "name": "interfaceId",
          "type": "bytes4"
        }
      ],
      "name": "supportsInterface",
      "outputs": [
        {
          "internalType": "bool",
          "name": "",
          "type": "bool"
        }
      ],
      "stateMutability": "view",
      "type": "function"
    },
    {
      "inputs": [],
      "name": "symbol",
      "outputs": [
        {
          "internalType": "string",
          "name": "",
          "type": "string"
        }
      ],
      "stateMutability": "view",
      "type": "function"
    },
    {
      "inputs": [],
      "name": "togglePause",
      "outputs": [],
      "stateMutability": "nonpayable",
      "type": "function"
    },
    {
      "inputs": [],
      "name": "togglePresale",
      "outputs": [],
      "stateMutability": "nonpayable",
      "type": "function"
    },
    {
      "inputs": [],
      "name": "togglePublicSale",
      "outputs": [],
      "stateMutability": "nonpayable",
      "type": "function"
    },
    {
      "inputs": [
        {
          "internalType": "uint256",
          "name": "tokenId",
          "type": "uint256"
        }
      ],
      "name": "tokenURI",
      "outputs": [
        {
          "internalType": "string",
          "name": "",
          "type": "string"
        }
      ],
      "stateMutability": "view",
      "type": "function"
    },
    {
      "inputs": [],
      "name": "totalSupply",
      "outputs": [
        {
          "internalType": "uint256",
          "name": "",
          "type": "uint256"
        }
      ],
      "stateMutability": "view",
      "type": "function"
    },
    {
      "inputs": [
        {
          "internalType": "address",
          "name": "from",
          "type": "address"
        },
        {
          "internalType": "address",
          "name": "to",
          "type": "address"
        },
        {
          "internalType": "uint256",
          "name": "tokenId",
          "type": "uint256"
        }
      ],
      "name": "transferFrom",
      "outputs": [],
      "stateMutability": "nonpayable",
      "type": "function"
    },
    {
      "inputs": [
        {
          "internalType": "address",
          "name": "newOwner",
          "type": "address"
        }
      ],
      "name": "transferOwnership",
      "outputs": [],
      "stateMutability": "nonpayable",
      "type": "function"
    }
  ],
  "bytecode": "0x6103e8600b5561010060405260416080818152906200316c60a03980516200003091600d91602090910190620002b7565b5060408051808201909152600580825264173539b7b760d91b60209092019182526200005f91600e91620002b7565b50600f805463ffffffff191663010000001790556003601055682fb474098f67c00000601255604080518082019091526043815260216020820152620000aa90601490600262000346565b5060408051808201909152732fae7fb0c9479c083e8454a2fc61dd198803dc2681527322ce3c2a7bbb1b8fe6236034f06a0ad8bc73d63c6020820152620000f690601590600262000389565b503480156200010457600080fd5b50604051620031ad380380620031ad83398101604081905262000127916200042b565b604080518082018252600580825264534849574160d81b6020808401828152855180870190965292855284015281519192916200016791600091620002b7565b5080516200017d906001906020840190620002b7565b5050506200019a62000194620001e960201b60201c565b620001ed565b60016007556008839055600980546001600160a01b038085166001600160a01b031992831617909255600a805492841692909116919091179055620001df846200023f565b5050505062000576565b3390565b600680546001600160a01b038381166001600160a01b0319831681179093556040519116919082907f8be0079c531659141344cd1fd0a4f28419497f9722a3daafe3b4186f6b6457e090600090a35050565b6006546001600160a01b031633146200029e5760405162461bcd60e51b815260206004820181905260248201527f4f776e61626c653a2063616c6c6572206973206e6f7420746865206f776e6572604482015260640160405180910390fd5b8051620002b390600c906020840190620002b7565b5050565b828054620002c59062000539565b90600052602060002090601f016020900481019282620002e9576000855562000334565b82601f106200030457805160ff191683800117855562000334565b8280016001018555821562000334579182015b828111156200033457825182559160200191906001019062000317565b5062000342929150620003e1565b5090565b82805482825590600052602060002090810192821562000334579160200282015b8281111562000334578251829060ff1690559160200191906001019062000367565b82805482825590600052602060002090810192821562000334579160200282015b828111156200033457825182546001600160a01b0319166001600160a01b03909116178255602090920191600190910190620003aa565b5b80821115620003425760008155600101620003e2565b634e487b7160e01b600052604160045260246000fd5b80516001600160a01b03811681146200042657600080fd5b919050565b600080600080608085870312156200044257600080fd5b84516001600160401b03808211156200045a57600080fd5b818701915087601f8301126200046f57600080fd5b815181811115620004845762000484620003f8565b604051601f8201601f19908116603f01168101908382118183101715620004af57620004af620003f8565b81604052828152602093508a84848701011115620004cc57600080fd5b600091505b82821015620004f05784820184015181830185015290830190620004d1565b82821115620005025760008484830101525b80985050505080870151945050506200051e604086016200040e565b91506200052e606086016200040e565b905092959194509250565b600181811c908216806200054e57607f821691505b602082108114156200057057634e487b7160e01b600052602260045260246000fd5b50919050565b612be680620005866000396000f3fe608060405234801561001057600080fd5b50600436106102325760003560e01c80638da5cb5b11610130578063c6682862116100b8578063e985e9c51161007c578063e985e9c514610476578063ebf0c71714610489578063f2c4ce1e14610492578063f2fde38b146104a5578063f4a0a528146104b857600080fd5b8063c668286214610437578063c87b56dd1461043f578063d5abeb0114610452578063da3ef23f1461045b578063e222c7f91461046e57600080fd5b8063a45063c0116100ff578063a45063c0146103ed578063a475b5dd14610401578063b3ab66b014610409578063b88d4fde1461041c578063c4ae31681461042f57600080fd5b80638da5cb5b146103ae578063954dc3e3146103bf57806395d89b41146103d2578063a22cb465146103da57600080fd5b806342842e0e116101be5780636c0360eb116101825780636c0360eb1461035857806370a0823114610360578063715018a6146103735780637cb647591461037b5780638cc4de191461038e57600080fd5b806342842e0e14610300578063518302271461031357806355f804b3146103255780635c975abb146103385780636352211e1461034557600080fd5b8063095ea7b311610205578063095ea7b3146102a75780631798d58b146102bc57806318160ddd146102cf57806323b872dd146102e557806334393743146102f857600080fd5b806301ffc9a71461023757806306fdde031461025f578063081812fc14610274578063081c8c441461029f575b600080fd5b61024a61024536600461246c565b6104cb565b60405190151581526020015b60405180910390f35b61026761051d565b60405161025691906124e1565b6102876102823660046124f4565b6105af565b6040516001600160a01b039091168152602001610256565b610267610649565b6102ba6102b5366004612522565b6106d7565b005b600f5461024a9062010000900460ff1681565b6102d76107ed565b604051908152602001610256565b6102ba6102f336600461254e565b6107fd565b6102ba61082e565b6102ba61030e36600461254e565b610877565b600f5461024a90610100900460ff1681565b6102ba61033336600461261b565b610892565b600f5461024a9060ff1681565b6102876103533660046124f4565b6108d3565b61026761094a565b6102d761036e366004612664565b610957565b6102ba6109de565b6102ba6103893660046124f4565b610a14565b6102d761039c366004612664565b60116020526000908152604090205481565b6006546001600160a01b0316610287565b6102ba6103cd366004612681565b610a43565b6102676110c4565b6102ba6103e836600461271b565b6110d3565b600f5461024a906301000000900460ff1681565b6102ba6110de565b6102ba6104173660046124f4565b611119565b6102ba61042a366004612754565b611677565b6102ba6116af565b6102676116ed565b61026761044d3660046124f4565b6116fa565b6102d7600b5481565b6102ba61046936600461261b565b611879565b6102ba6118b6565b61024a6104843660046127d4565b611901565b6102d760085481565b6102ba6104a036600461261b565b6119d1565b6102ba6104b3366004612664565b611a0e565b6102ba6104c63660046124f4565b611aa9565b60006001600160e01b031982166380ac58cd60e01b14806104fc57506001600160e01b03198216635b5e139f60e01b145b8061051757506301ffc9a760e01b6001600160e01b03198316145b92915050565b60606000805461052c90612802565b80601f016020809104026020016040519081016040528092919081815260200182805461055890612802565b80156105a55780601f1061057a576101008083540402835291602001916105a5565b820191906000526020600020905b81548152906001019060200180831161058857829003601f168201915b5050505050905090565b6000818152600260205260408120546001600160a01b031661062d5760405162461bcd60e51b815260206004820152602c60248201527f4552433732313a20617070726f76656420717565727920666f72206e6f6e657860448201526b34b9ba32b73a103a37b5b2b760a11b60648201526084015b60405180910390fd5b506000908152600460205260409020546001600160a01b031690565b600d805461065690612802565b80601f016020809104026020016040519081016040528092919081815260200182805461068290612802565b80156106cf5780601f106106a4576101008083540402835291602001916106cf565b820191906000526020600020905b8154815290600101906020018083116106b257829003601f168201915b505050505081565b60006106e2826108d3565b9050806001600160a01b0316836001600160a01b031614156107505760405162461bcd60e51b815260206004820152602160248201527f4552433732313a20617070726f76616c20746f2063757272656e74206f776e656044820152603960f91b6064820152608401610624565b336001600160a01b038216148061076c575061076c8133611901565b6107de5760405162461bcd60e51b815260206004820152603860248201527f4552433732313a20617070726f76652063616c6c6572206973206e6f74206f7760448201527f6e6572206e6f7220617070726f76656420666f7220616c6c00000000000000006064820152608401610624565b6107e88383611ad8565b505050565b60006107f860135490565b905090565b6108073382611b46565b6108235760405162461bcd60e51b81526004016106249061283d565b6107e8838383611c15565b6006546001600160a01b031633146108585760405162461bcd60e51b81526004016106249061288e565b600f805462ff0000198116620100009182900460ff1615909102179055565b6107e883838360405180602001604052806000815250611677565b6006546001600160a01b031633146108bc5760405162461bcd60e51b81526004016106249061288e565b80516108cf90600c9060208401906123bd565b5050565b6000818152600260205260408120546001600160a01b0316806105175760405162461bcd60e51b815260206004820152602960248201527f4552433732313a206f776e657220717565727920666f72206e6f6e657869737460448201526832b73a103a37b5b2b760b91b6064820152608401610624565b600c805461065690612802565b60006001600160a01b0382166109c25760405162461bcd60e51b815260206004820152602a60248201527f4552433732313a2062616c616e636520717565727920666f7220746865207a65604482015269726f206164647265737360b01b6064820152608401610624565b506001600160a01b031660009081526003602052604090205490565b6006546001600160a01b03163314610a085760405162461bcd60e51b81526004016106249061288e565b610a126000611db1565b565b6006546001600160a01b03163314610a3e5760405162461bcd60e51b81526004016106249061288e565b600855565b8181610aba828280806020026020016040519081016040528093929190818152602001838360200280828437600092019190915250506008546040516bffffffffffffffffffffffff193360601b166020820152909250603401905060405160208183030381529060405280519060200120611e03565b1515600114610adb5760405162461bcd60e51b8152600401610624906128c3565b333214610afa5760405162461bcd60e51b8152600401610624906128c3565b336001600160a01b03871614610b475760405162461bcd60e51b815260206004820152601260248201527114d21255d04e88139bdd08185b1b1bddd95960721b6044820152606401610624565b600f5462010000900460ff16610b975760405162461bcd60e51b815260206004820152601560248201527429a424aba09d10283932b9b0b6329034b99027a32360591b6044820152606401610624565b600f5460ff1615610be65760405162461bcd60e51b815260206004820152601960248201527814d21255d04e8810dbdb9d1c9858dd081a5cc81c185d5cd959603a1b6044820152606401610624565b601054851115610c085760405162461bcd60e51b8152600401610624906128ef565b60105433600090815260116020526040902054610c26908790612949565b1115610c445760405162461bcd60e51b8152600401610624906128ef565b6000610c4f60135490565b600b54909150610c5f8783612949565b1115610cad5760405162461bcd60e51b815260206004820152601a60248201527f53484957413a206d617820737570706c792065786365656465640000000000006044820152606401610624565b3360009081526011602052604081208054889290610ccc908490612949565b9091555050600a546012546001600160a01b03909116906323b872dd9033903090610cf8908b90612961565b6040516001600160e01b031960e086901b1681526001600160a01b0393841660048201529290911660248301526044820152606401602060405180830381600087803b158015610d4757600080fd5b505af1158015610d5b573d6000803e3d6000fd5b505050506040513d601f19601f82011682018060405250810190610d7f9190612980565b50600a54601580546001600160a01b039092169163a9059cbb9190600090610da957610da961299d565b6000918252602082200154601480546001600160a01b0390921692606492610dd357610dd361299d565b90600052602060002001548a601254610dec9190612961565b610df69190612961565b610e0091906129c9565b6040516001600160e01b031960e085901b1681526001600160a01b0390921660048301526024820152604401602060405180830381600087803b158015610e4657600080fd5b505af1158015610e5a573d6000803e3d6000fd5b505050506040513d601f19601f82011682018060405250810190610e7e9190612980565b50600a54601580546001600160a01b039092169163a9059cbb91906001908110610eaa57610eaa61299d565b9060005260206000200160009054906101000a90046001600160a01b031660646014600181548110610ede57610ede61299d565b90600052602060002001548a601254610ef79190612961565b610f019190612961565b610f0b91906129c9565b6040516001600160e01b031960e085901b1681526001600160a01b0390921660048301526024820152604401602060405180830381600087803b158015610f5157600080fd5b505af1158015610f65573d6000803e3d6000fd5b505050506040513d601f19601f82011682018060405250810190610f899190612980565b50600a54601580546001600160a01b039092169163a9059cbb91906002908110610fb557610fb561299d565b9060005260206000200160009054906101000a90046001600160a01b031660646014600281548110610fe957610fe961299d565b90600052602060002001548a6012546110029190612961565b61100c9190612961565b61101691906129c9565b6040516001600160e01b031960e085901b1681526001600160a01b0390921660048301526024820152604401602060405180830381600087803b15801561105c57600080fd5b505af1158015611070573d6000803e3d6000fd5b505050506040513d601f19601f820116820180604052508101906110949190612980565b5060005b868110156110ba576110a8611e19565b806110b2816129dd565b915050611098565b5050505050505050565b60606001805461052c90612802565b6108cf338383611e9e565b6006546001600160a01b031633146111085760405162461bcd60e51b81526004016106249061288e565b600f805461ff001916610100179055565b3332146111385760405162461bcd60e51b8152600401610624906128c3565b600f546301000000900460ff166111915760405162461bcd60e51b815260206004820152601860248201527f53484957413a205075626c696353616c65206973204f464600000000000000006044820152606401610624565b600f5460ff16156111e05760405162461bcd60e51b815260206004820152601960248201527814d21255d04e8810dbdb9d1c9858dd081a5cc81c185d5cd959603a1b6044820152606401610624565b600081116112255760405162461bcd60e51b815260206004820152601260248201527114d21255d04e881e995c9bc8185b5bdd5b9d60721b6044820152606401610624565b600061123060135490565b600b549091506112408383612949565b111561128e5760405162461bcd60e51b815260206004820152601a60248201527f53484957413a204d617820737570706c792065786365656465640000000000006044820152606401610624565b600a546012546001600160a01b03909116906323b872dd90339030906112b5908790612961565b6040516001600160e01b031960e086901b1681526001600160a01b0393841660048201529290911660248301526044820152606401602060405180830381600087803b15801561130457600080fd5b505af1158015611318573d6000803e3d6000fd5b505050506040513d601f19601f8201168201806040525081019061133c9190612980565b50600a54601580546001600160a01b039092169163a9059cbb91906000906113665761136661299d565b6000918252602082200154601480546001600160a01b03909216926064926113905761139061299d565b9060005260206000200154866012546113a99190612961565b6113b39190612961565b6113bd91906129c9565b6040516001600160e01b031960e085901b1681526001600160a01b0390921660048301526024820152604401602060405180830381600087803b15801561140357600080fd5b505af1158015611417573d6000803e3d6000fd5b505050506040513d601f19601f8201168201806040525081019061143b9190612980565b50600a54601580546001600160a01b039092169163a9059cbb919060019081106114675761146761299d565b9060005260206000200160009054906101000a90046001600160a01b03166064601460018154811061149b5761149b61299d565b9060005260206000200154866012546114b49190612961565b6114be9190612961565b6114c891906129c9565b6040516001600160e01b031960e085901b1681526001600160a01b0390921660048301526024820152604401602060405180830381600087803b15801561150e57600080fd5b505af1158015611522573d6000803e3d6000fd5b505050506040513d601f19601f820116820180604052508101906115469190612980565b50600a54601580546001600160a01b039092169163a9059cbb919060029081106115725761157261299d565b9060005260206000200160009054906101000a90046001600160a01b0316606460146002815481106115a6576115a661299d565b9060005260206000200154866012546115bf9190612961565b6115c99190612961565b6115d391906129c9565b6040516001600160e01b031960e085901b1681526001600160a01b0390921660048301526024820152604401602060405180830381600087803b15801561161957600080fd5b505af115801561162d573d6000803e3d6000fd5b505050506040513d601f19601f820116820180604052508101906116519190612980565b5060005b828110156107e857611665611e19565b8061166f816129dd565b915050611655565b6116813383611b46565b61169d5760405162461bcd60e51b81526004016106249061283d565b6116a984848484611f6d565b50505050565b6006546001600160a01b031633146116d95760405162461bcd60e51b81526004016106249061288e565b600f805460ff19811660ff90911615179055565b600e805461065690612802565b6000818152600260205260409020546060906001600160a01b03166117795760405162461bcd60e51b815260206004820152602f60248201527f4552433732314d657461646174613a2055524920717565727920666f72206e6f60448201526e3732bc34b9ba32b73a103a37b5b2b760891b6064820152608401610624565b600f54610100900460ff1661181a57600d805461179590612802565b80601f01602080910402602001604051908101604052809291908181526020018280546117c190612802565b801561180e5780601f106117e35761010080835404028352916020019161180e565b820191906000526020600020905b8154815290600101906020018083116117f157829003601f168201915b50505050509050919050565b6000611824611fa0565b905060008151116118445760405180602001604052806000815250611872565b8061184e84611faf565b600e604051602001611862939291906129f8565b6040516020818303038152906040525b9392505050565b6006546001600160a01b031633146118a35760405162461bcd60e51b81526004016106249061288e565b80516108cf90600e9060208401906123bd565b6006546001600160a01b031633146118e05760405162461bcd60e51b81526004016106249061288e565b600f805463ff00000019811663010000009182900460ff1615909102179055565b60095460405163c455279160e01b81526001600160a01b03848116600483015260009281169190841690829063c45527919060240160206040518083038186803b15801561194e57600080fd5b505afa158015611962573d6000803e3d6000fd5b505050506040513d601f19601f820116820180604052508101906119869190612abc565b6001600160a01b0316141561199f576001915050610517565b6001600160a01b0380851660009081526005602090815260408083209387168352929052205460ff165b949350505050565b6006546001600160a01b031633146119fb5760405162461bcd60e51b81526004016106249061288e565b80516108cf90600d9060208401906123bd565b6006546001600160a01b03163314611a385760405162461bcd60e51b81526004016106249061288e565b6001600160a01b038116611a9d5760405162461bcd60e51b815260206004820152602660248201527f4f776e61626c653a206e6577206f776e657220697320746865207a65726f206160448201526564647265737360d01b6064820152608401610624565b611aa681611db1565b50565b6006546001600160a01b03163314611ad35760405162461bcd60e51b81526004016106249061288e565b601255565b600081815260046020526040902080546001600160a01b0319166001600160a01b0384169081179091558190611b0d826108d3565b6001600160a01b03167f8c5be1e5ebec7d5bd14f71427d1e84f3dd0314c0f7b2291e5b200ac8c7c3b92560405160405180910390a45050565b6000818152600260205260408120546001600160a01b0316611bbf5760405162461bcd60e51b815260206004820152602c60248201527f4552433732313a206f70657261746f7220717565727920666f72206e6f6e657860448201526b34b9ba32b73a103a37b5b2b760a11b6064820152608401610624565b6000611bca836108d3565b9050806001600160a01b0316846001600160a01b03161480611c055750836001600160a01b0316611bfa846105af565b6001600160a01b0316145b806119c957506119c98185611901565b826001600160a01b0316611c28826108d3565b6001600160a01b031614611c8c5760405162461bcd60e51b815260206004820152602560248201527f4552433732313a207472616e736665722066726f6d20696e636f72726563742060448201526437bbb732b960d91b6064820152608401610624565b6001600160a01b038216611cee5760405162461bcd60e51b8152602060048201526024808201527f4552433732313a207472616e7366657220746f20746865207a65726f206164646044820152637265737360e01b6064820152608401610624565b611cf9600082611ad8565b6001600160a01b0383166000908152600360205260408120805460019290611d22908490612ad9565b90915550506001600160a01b0382166000908152600360205260408120805460019290611d50908490612949565b909155505060008181526002602052604080822080546001600160a01b0319166001600160a01b0386811691821790925591518493918716917fddf252ad1be2c89b69c2b068fc378daa952ba7f163c4a11628f55a4df523b3ef91a4505050565b600680546001600160a01b038381166001600160a01b0319831681179093556040519116919082907f8be0079c531659141344cd1fd0a4f28419497f9722a3daafe3b4186f6b6457e090600090a35050565b600082611e1085846120ad565b14949350505050565b60026007541415611e6c5760405162461bcd60e51b815260206004820152601f60248201527f5265656e7472616e637947756172643a207265656e7472616e742063616c6c006044820152606401610624565b6002600755611e7f601380546001019055565b6000611e8a60135490565b9050611e963382612121565b506001600755565b816001600160a01b0316836001600160a01b03161415611f005760405162461bcd60e51b815260206004820152601960248201527f4552433732313a20617070726f766520746f2063616c6c6572000000000000006044820152606401610624565b6001600160a01b03838116600081815260056020908152604080832094871680845294825291829020805460ff191686151590811790915591519182527f17307eab39ab6107e8899845ad3d59bd9653f200f220920489ca2b5937696c31910160405180910390a3505050565b611f78848484611c15565b611f848484848461213b565b6116a95760405162461bcd60e51b815260040161062490612af0565b6060600c805461052c90612802565b606081611fd35750506040805180820190915260018152600360fc1b602082015290565b8160005b8115611ffd5780611fe7816129dd565b9150611ff69050600a836129c9565b9150611fd7565b60008167ffffffffffffffff8111156120185761201861258f565b6040519080825280601f01601f191660200182016040528015612042576020820181803683370190505b5090505b84156119c957612057600183612ad9565b9150612064600a86612b42565b61206f906030612949565b60f81b8183815181106120845761208461299d565b60200101906001600160f81b031916908160001a9053506120a6600a866129c9565b9450612046565b600081815b84518110156121195760008582815181106120cf576120cf61299d565b602002602001015190508083116120f55760008381526020829052604090209250612106565b600081815260208490526040902092505b5080612111816129dd565b9150506120b2565b509392505050565b6108cf828260405180602001604052806000815250612248565b60006001600160a01b0384163b1561223d57604051630a85bd0160e11b81526001600160a01b0385169063150b7a029061217f903390899088908890600401612b56565b602060405180830381600087803b15801561219957600080fd5b505af19250505080156121c9575060408051601f3d908101601f191682019092526121c691810190612b93565b60015b612223573d8080156121f7576040519150601f19603f3d011682016040523d82523d6000602084013e6121fc565b606091505b50805161221b5760405162461bcd60e51b815260040161062490612af0565b805181602001fd5b6001600160e01b031916630a85bd0160e11b1490506119c9565b506001949350505050565b612252838361227b565b61225f600084848461213b565b6107e85760405162461bcd60e51b815260040161062490612af0565b6001600160a01b0382166122d15760405162461bcd60e51b815260206004820181905260248201527f4552433732313a206d696e7420746f20746865207a65726f20616464726573736044820152606401610624565b6000818152600260205260409020546001600160a01b0316156123365760405162461bcd60e51b815260206004820152601c60248201527f4552433732313a20746f6b656e20616c7265616479206d696e746564000000006044820152606401610624565b6001600160a01b038216600090815260036020526040812080546001929061235f908490612949565b909155505060008181526002602052604080822080546001600160a01b0319166001600160a01b03861690811790915590518392907fddf252ad1be2c89b69c2b068fc378daa952ba7f163c4a11628f55a4df523b3ef908290a45050565b8280546123c990612802565b90600052602060002090601f0160209004810192826123eb5760008555612431565b82601f1061240457805160ff1916838001178555612431565b82800160010185558215612431579182015b82811115612431578251825591602001919060010190612416565b5061243d929150612441565b5090565b5b8082111561243d5760008155600101612442565b6001600160e01b031981168114611aa657600080fd5b60006020828403121561247e57600080fd5b813561187281612456565b60005b838110156124a457818101518382015260200161248c565b838111156116a95750506000910152565b600081518084526124cd816020860160208601612489565b601f01601f19169290920160200192915050565b60208152600061187260208301846124b5565b60006020828403121561250657600080fd5b5035919050565b6001600160a01b0381168114611aa657600080fd5b6000806040838503121561253557600080fd5b82356125408161250d565b946020939093013593505050565b60008060006060848603121561256357600080fd5b833561256e8161250d565b9250602084013561257e8161250d565b929592945050506040919091013590565b634e487b7160e01b600052604160045260246000fd5b600067ffffffffffffffff808411156125c0576125c061258f565b604051601f8501601f19908116603f011681019082821181831017156125e8576125e861258f565b8160405280935085815286868601111561260157600080fd5b858560208301376000602087830101525050509392505050565b60006020828403121561262d57600080fd5b813567ffffffffffffffff81111561264457600080fd5b8201601f8101841361265557600080fd5b6119c9848235602084016125a5565b60006020828403121561267657600080fd5b81356118728161250d565b6000806000806060858703121561269757600080fd5b84356126a28161250d565b935060208501359250604085013567ffffffffffffffff808211156126c657600080fd5b818701915087601f8301126126da57600080fd5b8135818111156126e957600080fd5b8860208260051b85010111156126fe57600080fd5b95989497505060200194505050565b8015158114611aa657600080fd5b6000806040838503121561272e57600080fd5b82356127398161250d565b915060208301356127498161270d565b809150509250929050565b6000806000806080858703121561276a57600080fd5b84356127758161250d565b935060208501356127858161250d565b925060408501359150606085013567ffffffffffffffff8111156127a857600080fd5b8501601f810187136127b957600080fd5b6127c8878235602084016125a5565b91505092959194509250565b600080604083850312156127e757600080fd5b82356127f28161250d565b915060208301356127498161250d565b600181811c9082168061281657607f821691505b6020821081141561283757634e487b7160e01b600052602260045260246000fd5b50919050565b60208082526031908201527f4552433732313a207472616e736665722063616c6c6572206973206e6f74206f6040820152701ddb995c881b9bdc88185c1c1c9bdd9959607a1b606082015260800190565b6020808252818101527f4f776e61626c653a2063616c6c6572206973206e6f7420746865206f776e6572604082015260600190565b6020808252601290820152712737ba1030b63637bbb2b21037b934b3b4b760711b604082015260600190565b60208082526024908201527f53484957413a20596f752063616e2774206d696e7420736f206d75636820746f6040820152636b656e7360e01b606082015260800190565b634e487b7160e01b600052601160045260246000fd5b6000821982111561295c5761295c612933565b500190565b600081600019048311821515161561297b5761297b612933565b500290565b60006020828403121561299257600080fd5b81516118728161270d565b634e487b7160e01b600052603260045260246000fd5b634e487b7160e01b600052601260045260246000fd5b6000826129d8576129d86129b3565b500490565b60006000198214156129f1576129f1612933565b5060010190565b600084516020612a0b8285838a01612489565b855191840191612a1e8184848a01612489565b8554920191600090600181811c9080831680612a3b57607f831692505b858310811415612a5957634e487b7160e01b85526022600452602485fd5b808015612a6d5760018114612a7e57612aab565b60ff19851688528388019550612aab565b60008b81526020902060005b85811015612aa35781548a820152908401908801612a8a565b505083880195505b50939b9a5050505050505050505050565b600060208284031215612ace57600080fd5b81516118728161250d565b600082821015612aeb57612aeb612933565b500390565b60208082526032908201527f4552433732313a207472616e7366657220746f206e6f6e20455243373231526560408201527131b2b4bb32b91034b6b83632b6b2b73a32b960711b606082015260800190565b600082612b5157612b516129b3565b500690565b6001600160a01b0385811682528416602082015260408101839052608060608201819052600090612b89908301846124b5565b9695505050505050565b600060208284031215612ba557600080fd5b81516118728161245656fea26469706673582212206cdba3c52b40f78d91aa09d184fb377b220a970ee562170ea7b1beaeed9c315c64736f6c63430008090033697066733a2f2f516d56334c36633877696a317731624d326e624175477044676844376b44654469347353377a456f53346642576f2f68696464656e2e6a736f6e",
  "linkReferences": {},
  "deployedLinkReferences": {}
}